{
  "_format": "hh-sol-artifact-1",
  "contractName": "TokenizedBallot",
  "sourceName": "contracts/TokenizedBallot.sol",
  "abi": [
    {
      "inputs": [
        {
          "internalType": "bytes32[]",
          "name": "proposalNames",
          "type": "bytes32[]"
        },
        {
          "internalType": "address",
          "name": "_tokenContractAddress",
          "type": "address"
        },
        {
          "internalType": "uint256",
          "name": "_targetBlockNumber",
          "type": "uint256"
        }
      ],
      "stateMutability": "nonpayable",
      "type": "constructor"
    },
    {
      "inputs": [
        {
          "internalType": "uint256",
          "name": "",
          "type": "uint256"
        }
      ],
      "name": "proposals",
      "outputs": [
        {
          "internalType": "bytes32",
          "name": "name",
          "type": "bytes32"
        },
        {
          "internalType": "uint256",
          "name": "voteCount",
          "type": "uint256"
        }
      ],
      "stateMutability": "view",
      "type": "function"
    },
    {
      "inputs": [],
      "name": "targetBlockNumber",
      "outputs": [
        {
          "internalType": "uint256",
          "name": "",
          "type": "uint256"
        }
      ],
      "stateMutability": "view",
      "type": "function"
    },
    {
      "inputs": [
        {
          "internalType": "bytes32[]",
          "name": "param",
          "type": "bytes32[]"
        }
      ],
      "name": "testWithArray",
      "outputs": [],
      "stateMutability": "nonpayable",
      "type": "function"
    },
    {
      "inputs": [],
      "name": "tokenContract",
      "outputs": [
        {
          "internalType": "contract IMyToken",
          "name": "",
          "type": "address"
        }
      ],
      "stateMutability": "view",
      "type": "function"
    },
    {
      "inputs": [
        {
          "internalType": "uint256",
          "name": "proposal",
          "type": "uint256"
        },
        {
          "internalType": "uint256",
          "name": "amount",
          "type": "uint256"
        }
      ],
      "name": "vote",
      "outputs": [],
      "stateMutability": "nonpayable",
      "type": "function"
    },
    {
      "inputs": [
        {
          "internalType": "address",
          "name": "account",
          "type": "address"
        }
      ],
      "name": "votingPower",
      "outputs": [
        {
          "internalType": "uint256",
          "name": "",
          "type": "uint256"
        }
      ],
      "stateMutability": "view",
      "type": "function"
    },
    {
      "inputs": [],
      "name": "winnerName",
      "outputs": [
        {
          "internalType": "bytes32",
          "name": "winnerProposalName",
          "type": "bytes32"
        }
      ],
      "stateMutability": "view",
      "type": "function"
    },
    {
      "inputs": [],
      "name": "winningProposal",
      "outputs": [
        {
          "internalType": "uint256",
          "name": "winningProposalIndex",
          "type": "uint256"
        }
      ],
      "stateMutability": "view",
      "type": "function"
    }
  ],
  "bytecode": "0x60806040523480156200001157600080fd5b5060405162000f9b38038062000f9b833981810160405281019062000037919062000384565b81600160006101000a81548173ffffffffffffffffffffffffffffffffffffffff021916908373ffffffffffffffffffffffffffffffffffffffff1602179055508060028190555060005b8351811015620001165760006040518060400160405280868481518110620000af57620000ae620003ff565b5b60200260200101518152602001600081525090806001815401808255809150506001900390600052602060002090600202016000909190919091506000820151816000015560208201518160010155505080806200010d906200045d565b91505062000082565b50505050620004aa565b6000604051905090565b600080fd5b600080fd5b600080fd5b6000601f19601f8301169050919050565b7f4e487b7100000000000000000000000000000000000000000000000000000000600052604160045260246000fd5b620001848262000139565b810181811067ffffffffffffffff82111715620001a657620001a56200014a565b5b80604052505050565b6000620001bb62000120565b9050620001c9828262000179565b919050565b600067ffffffffffffffff821115620001ec57620001eb6200014a565b5b602082029050602081019050919050565b600080fd5b6000819050919050565b620002178162000202565b81146200022357600080fd5b50565b60008151905062000237816200020c565b92915050565b6000620002546200024e84620001ce565b620001af565b905080838252602082019050602084028301858111156200027a5762000279620001fd565b5b835b81811015620002a7578062000292888262000226565b8452602084019350506020810190506200027c565b5050509392505050565b600082601f830112620002c957620002c862000134565b5b8151620002db8482602086016200023d565b91505092915050565b600073ffffffffffffffffffffffffffffffffffffffff82169050919050565b60006200031182620002e4565b9050919050565b620003238162000304565b81146200032f57600080fd5b50565b600081519050620003438162000318565b92915050565b6000819050919050565b6200035e8162000349565b81146200036a57600080fd5b50565b6000815190506200037e8162000353565b92915050565b600080600060608486031215620003a0576200039f6200012a565b5b600084015167ffffffffffffffff811115620003c157620003c06200012f565b5b620003cf86828701620002b1565b9350506020620003e28682870162000332565b9250506040620003f5868287016200036d565b9150509250925092565b7f4e487b7100000000000000000000000000000000000000000000000000000000600052603260045260246000fd5b7f4e487b7100000000000000000000000000000000000000000000000000000000600052601160045260246000fd5b60006200046a8262000349565b91507fffffffffffffffffffffffffffffffffffffffffffffffffffffffffffffffff82036200049f576200049e6200042e565b5b600182019050919050565b610ae180620004ba6000396000f3fe608060405234801561001057600080fd5b50600436106100885760003560e01c80636d15b5811161005b5780636d15b58114610118578063b384abef14610134578063c07473f614610150578063e2ba53f01461018057610088565b8063013cf08b1461008d5780632a8cd29e146100be57806355a373d6146100dc578063609ff1bd146100fa575b600080fd5b6100a760048036038101906100a291906104df565b61019e565b6040516100b5929190610534565b60405180910390f35b6100c66101d2565b6040516100d3919061055d565b60405180910390f35b6100e46101d8565b6040516100f191906105f7565b60405180910390f35b6101026101fe565b60405161010f919061055d565b60405180910390f35b610132600480360381019061012d9190610797565b610286565b005b61014e600480360381019061014991906107e0565b610289565b005b61016a6004803603810190610165919061085e565b61036a565b604051610177919061055d565b60405180910390f35b610188610462565b604051610195919061088b565b60405180910390f35b600081815481106101ae57600080fd5b90600052602060002090600202016000915090508060000154908060010154905082565b60025481565b600160009054906101000a900473ffffffffffffffffffffffffffffffffffffffff1681565b6000806000905060005b60008054905081101561028157816000828154811061022a576102296108a6565b5b906000526020600020906002020160010154111561026e5760008181548110610256576102556108a6565b5b90600052602060002090600202016001015491508092505b808061027990610904565b915050610208565b505090565b50565b806102933361036a565b10156102d4576040517f08c379a00000000000000000000000000000000000000000000000000000000081526004016102cb906109a9565b60405180910390fd5b80600360003373ffffffffffffffffffffffffffffffffffffffff1673ffffffffffffffffffffffffffffffffffffffff168152602001908152602001600020600082825461032391906109c9565b92505081905550806000838154811061033f5761033e6108a6565b5b9060005260206000209060020201600101600082825461035f91906109c9565b925050819055505050565b600080600360008473ffffffffffffffffffffffffffffffffffffffff1673ffffffffffffffffffffffffffffffffffffffff16815260200190815260200160002054600160009054906101000a900473ffffffffffffffffffffffffffffffffffffffff1673ffffffffffffffffffffffffffffffffffffffff16633a46b1a8856002546040518363ffffffff1660e01b815260040161040c929190610a0c565b602060405180830381865afa158015610429573d6000803e3d6000fd5b505050506040513d601f19601f8201168201806040525081019061044d9190610a4a565b6104579190610a77565b905080915050919050565b60008061046d6101fe565b8154811061047e5761047d6108a6565b5b906000526020600020906002020160000154905090565b6000604051905090565b600080fd5b600080fd5b6000819050919050565b6104bc816104a9565b81146104c757600080fd5b50565b6000813590506104d9816104b3565b92915050565b6000602082840312156104f5576104f461049f565b5b6000610503848285016104ca565b91505092915050565b6000819050919050565b61051f8161050c565b82525050565b61052e816104a9565b82525050565b60006040820190506105496000830185610516565b6105566020830184610525565b9392505050565b60006020820190506105726000830184610525565b92915050565b600073ffffffffffffffffffffffffffffffffffffffff82169050919050565b6000819050919050565b60006105bd6105b86105b384610578565b610598565b610578565b9050919050565b60006105cf826105a2565b9050919050565b60006105e1826105c4565b9050919050565b6105f1816105d6565b82525050565b600060208201905061060c60008301846105e8565b92915050565b600080fd5b6000601f19601f8301169050919050565b7f4e487b7100000000000000000000000000000000000000000000000000000000600052604160045260246000fd5b61066082610617565b810181811067ffffffffffffffff8211171561067f5761067e610628565b5b80604052505050565b6000610692610495565b905061069e8282610657565b919050565b600067ffffffffffffffff8211156106be576106bd610628565b5b602082029050602081019050919050565b600080fd5b6106dd8161050c565b81146106e857600080fd5b50565b6000813590506106fa816106d4565b92915050565b600061071361070e846106a3565b610688565b90508083825260208201905060208402830185811115610736576107356106cf565b5b835b8181101561075f578061074b88826106eb565b845260208401935050602081019050610738565b5050509392505050565b600082601f83011261077e5761077d610612565b5b813561078e848260208601610700565b91505092915050565b6000602082840312156107ad576107ac61049f565b5b600082013567ffffffffffffffff8111156107cb576107ca6104a4565b5b6107d784828501610769565b91505092915050565b600080604083850312156107f7576107f661049f565b5b6000610805858286016104ca565b9250506020610816858286016104ca565b9150509250929050565b600061082b82610578565b9050919050565b61083b81610820565b811461084657600080fd5b50565b60008135905061085881610832565b92915050565b6000602082840312156108745761087361049f565b5b600061088284828501610849565b91505092915050565b60006020820190506108a06000830184610516565b92915050565b7f4e487b7100000000000000000000000000000000000000000000000000000000600052603260045260246000fd5b7f4e487b7100000000000000000000000000000000000000000000000000000000600052601160045260246000fd5b600061090f826104a9565b91507fffffffffffffffffffffffffffffffffffffffffffffffffffffffffffffffff8203610941576109406108d5565b5b600182019050919050565b600082825260208201905092915050565b7f4e6f7420656e6f75676820766f74696e6720706f776572210000000000000000600082015250565b600061099360188361094c565b915061099e8261095d565b602082019050919050565b600060208201905081810360008301526109c281610986565b9050919050565b60006109d4826104a9565b91506109df836104a9565b92508282019050808211156109f7576109f66108d5565b5b92915050565b610a0681610820565b82525050565b6000604082019050610a2160008301856109fd565b610a2e6020830184610525565b9392505050565b600081519050610a44816104b3565b92915050565b600060208284031215610a6057610a5f61049f565b5b6000610a6e84828501610a35565b91505092915050565b6000610a82826104a9565b9150610a8d836104a9565b9250828203905081811115610aa557610aa46108d5565b5b9291505056fea264697066735822122047412f9c485588e78e4d8677a6ba903d4e103c364c5e956ed3691221eaa5660f64736f6c63430008110033",
  "linkReferences": {},
  "deployedLinkReferences": {}
}